{
  "contractName": "TasksContract",
  "abi": [
    {
      "inputs": [
        {
          "internalType": "uint256",
          "name": "",
          "type": "uint256"
        }
      ],
      "name": "tasks",
      "outputs": [
        {
          "internalType": "uint256",
          "name": "id",
          "type": "uint256"
        },
        {
          "internalType": "string",
          "name": "title",
          "type": "string"
        },
        {
          "internalType": "string",
          "name": "description",
          "type": "string"
        },
        {
          "internalType": "bool",
          "name": "done",
          "type": "bool"
        },
        {
          "internalType": "uint256",
          "name": "createdAt",
          "type": "uint256"
        }
      ],
      "stateMutability": "view",
      "type": "function",
      "constant": true
    },
    {
      "inputs": [
        {
          "internalType": "string",
          "name": "_title",
          "type": "string"
        },
        {
          "internalType": "string",
          "name": "_description",
          "type": "string"
        }
      ],
      "name": "createTask",
      "outputs": [],
      "stateMutability": "nonpayable",
      "type": "function"
    }
  ],
  "bytecode": "0x60806040526000805534801561001457600080fd5b506107a2806100246000396000f3fe608060405234801561001057600080fd5b50600436106100365760003560e01c8063292a45851461003b5780638d97767214610057575b600080fd5b610055600480360381019061005091906104a7565b61008b565b005b610071600480360381019061006c9190610555565b610157565b604051610082959493929190610634565b60405180910390f35b6040518060a0016040528060005481526020018381526020018281526020016000151581526020014281525060016000805481526020019081526020016000206000820151816000015560208201518160010190805190602001906100f19291906102aa565b50604082015181600201908051906020019061010e9291906102aa565b5060608201518160030160006101000a81548160ff0219169083151502179055506080820151816004015590505060008081548092919061014e906106c4565b91905055505050565b60016020528060005260406000206000915090508060000154908060010180546101809061073b565b80601f01602080910402602001604051908101604052809291908181526020018280546101ac9061073b565b80156101f95780601f106101ce576101008083540402835291602001916101f9565b820191906000526020600020905b8154815290600101906020018083116101dc57829003601f168201915b50505050509080600201805461020e9061073b565b80601f016020809104026020016040519081016040528092919081815260200182805461023a9061073b565b80156102875780601f1061025c57610100808354040283529160200191610287565b820191906000526020600020905b81548152906001019060200180831161026a57829003601f168201915b5050505050908060030160009054906101000a900460ff16908060040154905085565b8280546102b69061073b565b90600052602060002090601f0160209004810192826102d8576000855561031f565b82601f106102f157805160ff191683800117855561031f565b8280016001018555821561031f579182015b8281111561031e578251825591602001919060010190610303565b5b50905061032c9190610330565b5090565b5b80821115610349576000816000905550600101610331565b5090565b6000604051905090565b600080fd5b600080fd5b600080fd5b600080fd5b6000601f19601f8301169050919050565b7f4e487b7100000000000000000000000000000000000000000000000000000000600052604160045260246000fd5b6103b48261036b565b810181811067ffffffffffffffff821117156103d3576103d261037c565b5b80604052505050565b60006103e661034d565b90506103f282826103ab565b919050565b600067ffffffffffffffff8211156104125761041161037c565b5b61041b8261036b565b9050602081019050919050565b82818337600083830152505050565b600061044a610445846103f7565b6103dc565b90508281526020810184848401111561046657610465610366565b5b610471848285610428565b509392505050565b600082601f83011261048e5761048d610361565b5b813561049e848260208601610437565b91505092915050565b600080604083850312156104be576104bd610357565b5b600083013567ffffffffffffffff8111156104dc576104db61035c565b5b6104e885828601610479565b925050602083013567ffffffffffffffff8111156105095761050861035c565b5b61051585828601610479565b9150509250929050565b6000819050919050565b6105328161051f565b811461053d57600080fd5b50565b60008135905061054f81610529565b92915050565b60006020828403121561056b5761056a610357565b5b600061057984828501610540565b91505092915050565b61058b8161051f565b82525050565b600081519050919050565b600082825260208201905092915050565b60005b838110156105cb5780820151818401526020810190506105b0565b838111156105da576000848401525b50505050565b60006105eb82610591565b6105f5818561059c565b93506106058185602086016105ad565b61060e8161036b565b840191505092915050565b60008115159050919050565b61062e81610619565b82525050565b600060a0820190506106496000830188610582565b818103602083015261065b81876105e0565b9050818103604083015261066f81866105e0565b905061067e6060830185610625565b61068b6080830184610582565b9695505050505050565b7f4e487b7100000000000000000000000000000000000000000000000000000000600052601160045260246000fd5b60006106cf8261051f565b91507fffffffffffffffffffffffffffffffffffffffffffffffffffffffffffffffff820361070157610700610695565b5b600182019050919050565b7f4e487b7100000000000000000000000000000000000000000000000000000000600052602260045260246000fd5b6000600282049050600182168061075357607f821691505b6020821081036107665761076561070c565b5b5091905056fea2646970667358221220df582b24115d257d6160a4e8ac4c8da5795f4d29c1087b6bc6dcb7c7634b2a1264736f6c634300080e0033",
  "immutableReferences": {},
  "source": "pragma solidity^0.8.14;\n\ncontract TasksContract {\n\n  uint taskCounter = 0;\n\n  struct Task {\n    uint256 id;\n    string title;\n    string description; \n    bool done;\n    uint256 createdAt;\n  }\n\n  mapping (uint256 => Task) public tasks;\n\n  function createTask(string memory _title, string memory _description) public {\n    tasks[taskCounter]  = Task(taskCounter,_title, _description,false, block.timestamp);\n    taskCounter++;\n  }\n}\n\n",
  "sourcePath": "/home/goviedo/estudios/solidity/mitodocontract/contracts/TasksContract.sol",
  "compiler": {
    "name": "solc",
    "version": "0.8.14+commit.80d49f37.Emscripten.clang"
  },
  "schemaVersion": "3.4.7",
  "updatedAt": "2022-05-23T21:33:50.759Z",
  "networkType": "ethereum",
  "devdoc": {
    "kind": "dev",
    "methods": {},
    "version": 1
  },
  "userdoc": {
    "kind": "user",
    "methods": {},
    "version": 1
  }
}